S0130000456D70747950726F6A6563742E733337FB
S1130000001000205D180000591800005918000065
S11300105918000059180000591800005918000018
S11300205918000059180000591800005918000008
S113003059180000591800005918000059180000F8
S113004059180000591800005918000059180000E8
S113005059180000591800005918000059180000D8
S113006059180000591800005918000059180000C8
S1130070114B00001111000099080000A10F0000AD
S1130080D908000059180000591800005918000038
S1130090591800001D0B00005918000059180000E1
S11300A059180000810C0000110E000049150000D1
S11300B08112000059180000591800005918000056
S11300C05918000059180000591800005918000068
S11300D05918000059180000591800005918000058
S11300E05918000059180000591800005918000048
S11300F0B13C0000591800005918000059180000BC
S11301001D08000059180000591800005918000073
S11301105918000059180000591800005918000017
S11301205918000059180000591800005918000007
S11301305918000059180000190900005509000059
S113014010B5054C237833B9044B13B1044800E0CF
S113015000BF0123237010BDBC100020000000006C
S1130160E858000008B5034B1BB10349034800E0FD
S113017000BF08BD00000000C0100020E8580000C7
S1130180A3F5803A704700BF174B002B08BF134BF1
S11301909D46FFF7F5FF00218B460F461348144A8E
S11301A0121A04F027FF0E4B002B00D098470D4B7A
S11301B0002B00D098470020002104000D000D48BA
S11301C0002802D00C4800E000BF04F0C5FE200067
S11301D0290004F0BBFC04F0ABFE00BF00000800E3
S11301E0000000000000000000100020BC100020EF
S11301F04C1300200000000000000000704700BF06
S1130200704700BFBFF34F8F0549064BCA6802F41D
S1130210E0621343CB60BFF34F8F00BFFDE700BF25
S113022000ED00E00400FA05EFF3108372B6C36238
S1130230704700BFC36A03B962B6704700680368B9
S11302401B6818470346006818B1026859681268A9
S113025010477047D0E900311A68184653681847A8
S11302600346006818B1026859681268104770475D
S1130270D0E900311A68184653681847044B1A68C5
S1130280034622B1116810460A681968104770477E
S1130290AC110020044B1A68034622B111681046C1
S11302A00A681968104770470C12002003F012BE48
S11302B082B002AB03E906000146531E0246B0F8C1
S11302C00CC0009863F30E1C486148681C3122F886
S11302D00CCF02B003F0B0BA82B002AB03E906005F
S11302E00146531E0246B0F80CC0009863F30E1C7E
S11302F0086148681C3122F80CCF02B003F09CBAA4
S1130300406803F037BB00BF406803F033BB00BF55
S1130310012A05D0022A04BF0B680360002070473D
S113032001600020704700BF012A05D0022A04BFE3
S11303300B6803600020704701600020704700BF15
S1130340012A05D0022A04BF0B680360002070470D
S113035001600020704700BF012A034602D10160FA
S113036000207047022A04BFD1E90001C3E900015B
S113037000207047012A034602D101600020704723
S1130380022A04BFD1E90001C3E90001002070473B
S1130390012A034602D1016000207047022A04BFEB
S11303A0D1E90001C3E9000100207047012A034696
S11303B002D1016000207047022A04BFD1E9000184
S11303C0C3E900010020704743681F2B09D80122AC
S11303D0054902FA03F3C96A0B4214BF1046002010
S11303E070470020704700BF0000045043681F2B73
S11303F009D80122054902FA03F3C96A0B4214BF62
S11304001046002070470020704700BF00000450D1
S1130410C268C3699A424BD0F0B585B0002705463F
S1130420EFF3108672B6EC680297A3683BB32146DB
S11304300222684698476B69A068E968E268103B45
S1130440029099428C6803921FD01CB10846032283
S1130450A047E9681031E96006B962B6029B43B36C
S1130460039B68469847029B1BB103226946684672
S11304709847EA68EB699A42D2D105B0F0BD6B693E
S1130480103B9C4205D02146E4E714B10322084600
S1130490A0474FF40071286904F071FBAB695A68F6
S11304A0043302F50071C5E90421AB61EA60D3E7C6
S11304B0704704F08CFB00BF2DE9F04F83B0314B43
S11304C08269D0F828900360171D4369B9458046B6
S11304D0C568D0F81CA0066A019200930ED957F89B
S11304E0044B04F5007BA3681BB12146204603227C
S11304F098471034A345F6D1B945F0D8019B4B4534
S113050034D0009B9D4209D0009CAB681BB12946A6
S11305102846032298471035AC42F6D1B24508D09C
S1130520B3681BB131463046032298471036B245B2
S1130530F6D1D8F80400A8B1D8F82850D8F8184053
S11305400435AC4209D254F8040B4FF4007104F0A2
S113055016FBA542F7D8D8F80400D8F8081089008B
S113056004F00DFB404603B0BDE8F08F5545E0D0E4
S1130570AB681BB129462846032298471035AA4583
S1130580F6D1D6E7105300002DE9F04190B00026D3
S113059004460823754AA360C4E900262020C4E960
S11305A00366C4E90566C4E90766C4E909660D463D
S11305B004F0F6FA8046A3684FF40070013BC4F8D7
S11305C004805F0804F0ECFA694B08EB87021B68AF
S11305D0A261C3F30743A262012B00F50072C4E9D0
S11305E00402C4E90802E66248F82700E060E0611A
S11305F00ED14FF4802304205E4A5F49526E4B664D
S1130600520358BF5D4A01F51041086258BF536652
S11306106FF003026FF004035020594E594905E06E
S1130620402A8CF800030DD001330132002B01EB7A
S1130630030CF5DA03F00F0CACF1040CB4448CF8A1
S11306401800F1E72B78002B6BD106AF03F07CFA8E
S1130650BC464D4E0FCEACE80F000FCEACE80F00F9
S113066096E803008CE8030002F03CF80346474890
S113067083F308038DF8303001F0C4F9384601F0F3
S113068027FF012002F034F8AB78002B58D06F46D6
S11306903D4608360FCE0FC596E8030085E80300F3
S11306A0802001F041FE05285AD00121312001F0BB
S11306B051FC384602F048FB0521802002F030F955
S11306C005214FF4806002F02BF905214FF490606E
S11306D002F026F909214FF4C06002F021F9092142
S11306E04FF4F06002F01CF909212D2002F018F9F2
S11306F00022274938464B6F43F001034B670092B1
S11307003A7102F0E9FD03F0A1FB09213E2002F059
S113071007F903F089FF03F019FA204610B0BDE889
S1130720F0811C4B6A7806AF93E8030087E8030066
S113073012B100238DF81830384602F0A5FE85E783
S11307400321802002F0ECF803214FF4806002F0D2
S1130750E7F803214FF4906002F0E2F86F46B9E73E
S11307600221802002F0DCF89FE700BF1053000054
S11307700080E00F008000500090005000A0005066
S113078000ED00E000E100E0A053000000F04902A9
S1130790004000509853000038B50F4DD5E88F3F06
S11307A0DB0703D50D480E4B186038BD04462846B8
S11307B004F0E7F90028F5D021460848FFF7E4FEE5
S11307C0084A0949054804F0D5F9284604F0E5F932
S11307D00248034B186038BDE4100020E8100020E4
S11307E01811002000100020B9040000044B1B68FD
S11307F0D868DB69C01AB0FA80F04009704700BFBE
S113080018110020044B1B68D868DB6998420CBFA0
S113081001200420704700BF1811002008B51849B2
S1130820DFED186A8A6A486ACB6F9FED177A9BB22C
S113083007EE903AF8EEE77A67EEA67A02EA00034A
S11308405A0787EE870A0BD5104B186820B1036846
S11308500F4A5B68934211D104220E4B5A6208BDC1
S11308609B05FCD5094B186810B103681B689847B1
S11308704FF40072074B5A629A6208BD9847EBE73F
S11308800040005A3333534000F07F45501100209C
S1130890FD0100000060005A0C4BDA6C996C0A40B0
S11308A0D20700D4704710B401210948DA6C094C0E
S11308B0006822F00102DA64A16420B103685DF8E3
S11308C0044B1B6818475DF8044B704700C0055083
S11308D02012002000E005500C4BDA6C996C0A40A1
S11308E0D20700D4704710B401210948DA6C40687B
S11308F0084C22F00102DA64A16420B103685DF8B7
S1130900044B1B6818475DF8044B70470000065001
S113091020120020002006500B4A936C516C0B40AF
S11309205B0700D4704710B404240848084B516B8B
S11309304464186828B103685DF8044B1B68C9B2A5
S113094018475DF8044B70470000035A0020035A0F
S11309502C120020084A936C526C1340DB0709D513
S11309600121064A064B10689964596410B1036862
S11309701B681847704700BF0000035A3812002054
S11309800020035A2DE9F047884691464169426A9E
S11309904368561A08EBA6040134B3EB440F05462A
S11309A014D91C1B6408A3000468B9F1000F01D01A
S11309B003EB88031C44A14202F104023AD9914298
S11309C029D02046521A04F0FBFA24E09F1C434528
S11309D02CBFFF184744B7F1005F34D2B80004F0CD
S11309E0DFF83C1B64088246A400B9F1000F01D073
S11309F004EB88046A6A696904329142544403D05E
S1130A002046521A04F0DCFA69682868890004F068
S1130A10B6F8C5E900A723686C6103F50072C5E95F
S1130A200332A359344403F50072C5E907326C62FA
S1130A30BDE8F0879142EED0521A301D801A20444E
S1130A4004F0BEFAE7E704F0BCF800BF2DE9F0417A
S1130A5004460E46EFF3108772B6436AC569103B2D
S1130A609D4211D00023AB608B683BB12846022223
S1130A709847D6E90232C5E90232E5691035E561E5
S1130A8007B962B6BDE8F0816FF07842D0F82880EB
S1130A908369016AA8EB03036D1A9B10013B2D11B6
S1130AA005EB4315C16843695B1A05EB23159542B1
S1130AB02ED04368A8EB03028368A3EBA203012BA7
S1130AC01ED94FF4007004F06BF80023C8F804003A
S1130AD0E569AB60B3683BB10222314628469847CA
S1130AE0D6E90232C5E90232A36A5A68043302F530
S1130AF00071C4E90821A362E261002FC2D1C0E7FA
S1130B00002201210430FFF73DFFD4F82880D8E704
S1130B10014804F059F800BFD85200002DE9F04F05
S1130B2087B04E4A4E4B176D4E4C1F65D4E88F3F2D
S1130B30DB0775D50024DFF83C81DFF83CB1DFF832
S1130B403CA1012101FA04F33B422BD058F8243094
S1130B5043B39B6833B30293434BDBF80060CDE9A6
S1130B60043AEFF3108972B6736AF569103B9D423B
S1130B701ED00023AB60049B43B12846022202A985
S1130B809847059BEB60049BAB60F5691035F561F4
S1130B90B9F1000F00D162B6049B1BB102A9032274
S1130BA0084698470134082CCBD107B0BDE8F08F34
S1130BB06FF0784CB269B36A981A326A8010AA1A34
S1130BC00138121102EB40157269F068121A05EB34
S1130BD0221262453ED07268981AB268A2EBA00253
S1130BE0012A31D94FF40070019303F0D9FF019B1E
S1130BF058600023F569AB60049B3BB10222284690
S1130C0002A99847059BEB60049BAB60B26A5368EA
S1130C100432C6E9073303F50073B2627362B7E7BF
S1130C20204603F0AEFF002884D00121202001F0EB
S1130C3091F90E4B02A8D3F8D830029302F0ACFD20
S1130C40204603F0AAFF75E70022301DFFF79AFE45
S1130C50B36AC7E7064803F0B7FF00BF00000450BB
S1130C60002004501C110020110300002853000030
S1130C70D852000044120020181100203D02000048
S1130C80F0B585B04AF6AA225A4B5B4ED3F82454E9
S1130C90D3F820341D401540D6E88F3F13F00104EB
S1130CA000F08480554F3C684DB144B10122236962
S1130CB002FA03F3AB4209D06469002CF7D14AF677
S1130CC0AA224F4BC3F8202405B0F0BD237943B1C9
S1130CD0236A002B00F08980636A04F118009847A6
S1130CE0EDE7484A266A1568029346B1022268462F
S1130CF004F11801B047D4E90832CDE90232EFF328
S1130D00108472B66A6AEE69103A964218D00023CB
S1130D10B360029B43B10222304669469847DDE93D
S1130D200232C6E90232EE691036EE6104B962B6E7
S1130D30029B002BC3D06946032208469847BEE7AE
S1130D406FF07841AF6AAB69E868FB1A9B105A1ED2
S1130D502B6AF31A1B1103EB42136A69121A03EB91
S1130D6022138B4243D0D5E90123BA1AA3EBA20381
S1130D70012B33D94FF4007003F012FF0023786085
S1130D80EE69B360029B3BB1022230466946984744
S1130D90DDE90232C6E90232AB6A5A68043302F56D
S1130DA00071C5E90821AB62EA61BFE7304603F090
S1130DB0E8FE124F00283FF476AF4FF08062124BEA
S1130DC0C7E90044C3F880211A604FF00072C3F8E9
S1130DD080211A60304603F0E0FE64E7002201211E
S1130DE0281DFFF7CFFDAF6AC4E703F0F0FE074804
S1130DF003F0EAFE00C00350D8100020DC100020ED
S1130E0000E003501811002000E100E0D852000077
S1130E10F0B585B045F255525A4B5B4ED3F8245485
S1130E20D3F820341D401540D6E88F3F13F0010459
S1130E3000F08480554F3C684DB144B101222369D0
S1130E4002FA03F3AB4209D06469002CF7D145F2EE
S1130E5055524F4BC3F8202405B0F0BD237943B15C
S1130E60236A002B00F08980636A04F11800984714
S1130E70EDE7484A266A1568029346B1022268469D
S1130E8004F11801B047D4E90832CDE90232EFF396
S1130E90108472B66A6AEE69103A964218D000233A
S1130EA0B360029B43B10222304669469847DDE9AC
S1130EB00232C6E90232EE691036EE6104B962B656
S1130EC0029B002BC3D06946032208469847BEE71D
S1130ED06FF07841AF6AAB69E868FB1A9B105A1E41
S1130EE02B6AF31A1B1103EB42136A69121A03EB00
S1130EF022138B4243D0D5E90123BA1AA3EBA203F0
S1130F00012B33D94FF4007003F04AFE00237860BC
S1130F10EE69B360029B3BB10222304669469847B2
S1130F20DDE90232C6E90232AB6A5A68043302F5DB
S1130F300071C5E90821AB62EA61BFE7304603F0FE
S1130F4020FE124F00283FF476AF4FF08062124B20
S1130F50C7E90044C3F880211A604FF00072C3F857
S1130F6080211A60304603F018FE64E70022012154
S1130F70281DFFF707FDAF6AC4E703F028FE074802
S1130F8003F022FE00C00350D8100020DC10002023
S1130F9000E003501811002000E100E0D8520000E6
S1130FA0504AD36C916C0B4059070AD504214E4822
S1130FB04E4B40689964516A28B10368C9B21B68F2
S1130FC018475B0400D47047F0B585B04FF48044F3
S1130FD0D36C4649464D23F48043D36468688C64DB
S1130FE002F0C8FC6868AC8902F0E2FC414BC4F32F
S1130FF00A141A780134211A4AB13F4B186820B1F7
S113100003683E4A5B6893425ED105B0F0BD3C4C38
S11310103C483D4B2568CDE902300091EFF3108642
S113102072B66B6AEC69103B9C4217D0A260029BBB
S113103043B10222204669469847DDE90232C4E9F9
S11310400232EC691034EC6106B962B6029B002BE3
S1131050DBD06946032208469847D6E76FF078400C
S1131060AF6AAB69FB1A9B10591E2B6AE31A1B115A
S113107003EB4113EC686969091B03EB21138342F9
S11310802CD06B68F91AAB68A3EBA103012B1FD911
S11310904FF4007003F084FD00237860EC69A360D2
S11310A0029B3BB10222204669469847DDE90232A1
S11310B0C4E90232AB6A5A68043302F50071C5E927
S11310C00821AB62EA61BFE705B0BDE8F04018470C
S11310D00121281DFFF756FCAF6AD9E70B4803F03E
S11310E073FD00BF000006501412002000200650BB
S11310F0B4110020101200200C1200200102000084
S1131100181100209502000041030000D85200008D
S1131110504AD36C916C0B4059070AD504204E49B0
S11311204E4B88641868516A28B10368C9B21B68B9
S113113018475B0400D47047F0B585B04FF4804481
S1131140D36C4549464D23F48043D36468688C646A
S113115002F010FC6868AC8902F02AFC414BC4F32D
S11311600A141A780134211A4AB13F4B186820B185
S113117003683E4A5B6893425ED105B0F0BD3C4CC7
S11311803C483D4B2568CDE902300091EFF31086D1
S113119072B66B6AEC69103B9C4217D0A260029B4A
S11311A043B10222204669469847DDE90232C4E988
S11311B00232EC691034EC6106B962B6029B002B72
S11311C0DBD06946032208469847D6E76FF078409B
S11311D0AF6AAB69FB1A9B10591E2B6AE31A1B11E9
S11311E003EB4113EC686969091B03EB2113834288
S11311F02CD06B68F91AAB68A3EBA103012B1FD9A0
S11312004FF4007003F0CCFC00237860EC69A36019
S1131210029B3BB10222204669469847DDE902322F
S1131220C4E90232AB6A5A68043302F50071C5E9B5
S11312300821AB62EA61BFE705B0BDE8F04018479A
S11312400121281DFFF79EFBAF6AD9E70B4803F085
S1131250BBFC00BF00C0055000E005501412002084
S113126054110020B0110020AC1100200102000034
S1131270181100207D02000029030000D85200004C
S1131280F0B589B0A048036CC26B134013F49824E2
S113129055D04FF49824E0229C4B9D495B88CC6345
S11312A0013BC260072B32D8DFE803F03E33313311
S11312B03131313E11B1E020934BD8603AB3954CB3
S11312C09548964BCDE90421CDE906302568EFF326
S11312D0108672B66B6AEC69103B9C4200F0A080E9
S11312E00023A360069B43B10222204604A9984729
S11312F0DDE90632C4E90232EC691034EC6106B966
S113130062B6069B1BB104A903220846984709B09C
S1131310F0BD834B18680028F9D0022103685B688C
S113132009B0BDE8F04018477D4B18680028EED09E
S1131330022103681B6809B0BDE8F040184702F0B9
S1131340E3F80128E3D00530754BC0B204281A68CD
S11313501C606E4B16D95B88013B072BD7D801A1C3
S113136051F823F011140000B91300000F1300000A
S1131370B91300000F1300000F1300000F13000037
S1131380111400005B886749013B51F82010072BBA
S1131390BDD801A050F823F0B512000015140000C8
S11313A00F130000151400000F1300000F130000AA
S11313B00F130000B51200000021002AA7D0554CDD
S11313C059485A4BCDE90021CDE902302568EFF3A5
S11313D0108672B66B6AEC69103B9C4256D00023AF
S11313E0A360029B43B10222204669469847DDE987
S11313F00232C4E90232EC691034EC6106B962B617
S1131400029B002B83D069460322084698477EE757
S1131410002153E70029D0D0E0203B4BD860CCE733
S11314206FF07841AF6AAB69E868FB1A9B105A1EEB
S11314302B6AE31A1B1103EB42136A69121A03EBBA
S113144022138B427BD0D5E90123BA1AA3EBA20362
S1131450012B6DD94FF4007003F0A2FB00237860D8
S1131460EC69A360069B3BB10222204604A998477D
S1131470DDE90632C4E90232AB6A5A68043302F584
S11314800071C5E90821AB62EA6138E76FF0784181
S1131490AF6AAB69E868FB1A9B105A1E2B6AE31A01
S11314A01B1103EB42136A69121A03EB22138B42DA
S11314B045D0D5E90123BA1AA3EBA203012B1BD90A
S11314C04FF4007003F06CFB00237860EC69A360B8
S11314D0029B3BB10222204669469847DDE902326D
S11314E0C4E90232AB6A5A68043302F50071C5E9F3
S11314F00821AB62EA6181E700220121281DFFF780
S113150041FAAF6ADCE700BF008006503C110020BE
S113151000A00650181100206102000075030000AD
S11315203811002004540000710200005903000027
S113153000220121281DFFF725FAAF6A8AE7014836
S113154003F042FBD8520000F0B589B0A048036C08
S1131550C26B134013F4982455D04FF49824E0221E
S11315609C4B9D495B88CC63013BC260072B32D8FE
S1131570DFE803F03E3331333131313E11B1E02045
S1131580934BD8603AB3954C9548964BCDE90421DA
S1131590CDE906302568EFF3108672B66B6AEC6904
S11315A0103B9C4200F0A0800023A360069B43B143
S11315B00222204604A99847DDE90632C4E9023232
S11315C0EC691034EC6106B962B6069B1BB104A940
S11315D003220846984709B0F0BD834B18680028D9
S11315E0F9D0022103685B6809B0BDE8F0401847F0
S11315F07D4B18680028EED0022103681B6809B0EF
S1131600BDE8F040184701F07FFF0128E3D0053022
S1131610754BC0B204281A681C606E4B16D95B88DF
S1131620013B072BD7D801A151F823F0D9160000AC
S113163081160000D715000081160000D7150000A0
S1131640D7150000D7150000D91600005B8867493C
S1131650013B51F82010072BBDD801A050F823F00E
S11316607D150000DD160000D7150000DD16000012
S1131670D7150000D7150000D71500007D15000010
S11316800021002AA7D0554C59485A4BCDE90021D6
S1131690CDE902302568EFF3108672B66B6AEC6907
S11316A0103B9C4256D00023A360029B43B102220C
S11316B0204669469847DDE90232C4E90232EC6902
S11316C01034EC6106B962B6029B002B83D06946E4
S11316D00322084698477EE7002153E70029D0D02B
S11316E0E0203B4BD860CCE76FF07841AF6AAB6940
S11316F0E868FB1A9B105A1E2B6AE31A1B1103EBB2
S113170042136A69121A03EB22138B427BD0D5E988
S11317100123BA1AA3EBA203012B6DD94FF4007075
S113172003F03EFA00237860EC69A360069B3BB1AA
S11317300222204604A99847DDE90632C4E90232B0
S1131740AB6A5A68043302F50071C5E90821AB623B
S1131750EA6138E76FF07841AF6AAB69E868FB1A71
S11317609B105A1E2B6AE31A1B1103EB42136A697E
S1131770121A03EB22138B4245D0D5E90123BA1A7E
S1131780A3EBA203012B1BD94FF4007003F008FA5A
S113179000237860EC69A360029B3BB102222046DF
S11317A069469847DDE90232C4E90232AB6A5A68F5
S11317B0043302F50071C5E90821AB62EA6181E7EF
S11317C000220121281DFFF7DDF8AF6ADCE700BF26
S11317D00000015A241100200020015A1811002091
S11317E045020000AD030000201100200454000055
S11317F0550200009103000000220121281DFFF77B
S1131800C1F8AF6A8AE7014803F0DEF9D852000054
S113181070B44FF0FF320023094D0A490A480B4CBB
S11318200B4E296001600B49C5E90123C4E901237A
S113183026600E60C0E9012370BCC1E90123704732
S11318405411002034540000B411002080110020F1
S113185020540000E0110020FEE700BF08B500F0AE
S113186045F81E4C1E4BA34238BF9C4614D2DCF8EC
S113187008306BB1DCE9001200230439043A51F852
S1131880040F013342F8040FDCF808008342F6D356
S11318900CF10C0CA445EAD31248134B98421BD20A
S11318A0002403F1FF3CACEB000C00F110032CF01E
S11318B0070C08309C4450F8043C53B1002350F802
S11318C0082C043A42F8044F50F8041C01338B42AC
S11318D0F8D308306045EED1FEF756FCFC58000002
S11318E0F0580000FC580000FC58000070B44FF49D
S11318F000464FF0FF354FF6DF740220104B114ABB
S113190011499A60D3F8882042F47002C3F8882001
S11319100E4A966601F5005215665466C3F8D00067
S1131920BFF34F8FBFF36F8F08244FF44033084841
S1131930C0F88041D36004600B6170BC704700BF85
S113194000ED00E000000000008000440090005022
S113195000E100E0014B1868704700BF0810002048
S1131960014B1860704700BF08100020094B1B6F23
S113197003F00703022B09D0032B04D0012B00D062
S1131980FEE705487047054B18687047044B186814
S1131990704700BF00800050002D31010C10002062
S11319A0081000200D4B1B6F03F00703022B12D00D
S11319B0032B0DD0012B00D0FEE7094B0749094A40
S11319C0086FC0F303300130B3FBF0F010607047D0
S11319D0054B1B68F2E7054B1B68EFE700800050DE
S11319E0002D3101041000200C10002008100020EC
S11319F00048704700B4C404014B1868704700BF26
S1131A000C100020054A064B10601B6F03F00703FF
S1131A10032B00D07047FFF7C5BF00BF0C10002098
S1131A20008000500020704700487047002D3101AD
S1131A304FF40040704700BF4FF47A70704700BF06
S1131A40014B1868704700BF10100020FEE700BF6C
S1131A5010B40649064C0A681044A0428CBF4FF0EB
S1131A60FF3208605DF8044B1046704714100020E4
S1131A700080002000230360704700BF08B5344B8A
S1131A8098424AD01AD9334B98424AD00CD9324B97
S1131A9098424AD003F5740303F51053984248D191
S1131AA02E4BD3F8980008BD2D4B984248D02D4BAF
S1131AB0984213D1294BD3F88C0008BD2A4B984285
S1131AC042D012D9294B984224D003F5371303F599
S1131AD0D86398422DD1214B986F08BD244B98426E
S1131AE027D11E4BD3F8840008BD224B98420ED058
S1131AF008D9214B98420AD0204B984219D1174B50
S1131B00586E08BD0028CED01D4B984211D1134BFE
S1131B10986D08BD114B586F08BD104BD3F8800069
S1131B2008BD0E4BD3F8900008BD0C4BD3F89400BD
S1131B3008BD41F23C211348FFF788FF002008BD8F
S1131B40064BD3F8880008BD044B186F08BD00BFCE
S1131B5080BA8C01007E56030090D0030080E00F11
S1131B6080D54302006CDC02405DC6000024F40012
S1131B700048E80180841E0000093D00C0CF6A00CF
S1131B8040420F004054000038B5124B0546D3F8CC
S1131B9020310C4603F00303022B0FD0032B15D086
S1131BA0012B0FD00C4841F21A11FFF74FFF00230D
S1131BB0184605B1286004B1236038BDFFF71CFF47
S1131BC00323F6E7FFF7C6FE0523F2E7FFF72CFF32
S1131BD00223EEE70080005040540000F0B583B0CB
S1131BE00027114B0197D3F88041064604F0030403
S1131BF0012C0D460ED0022C12D041F267210B4865
S1131C00FFF724FF3C460EB1019B336005B12C6005
S1131C1003B0F0BD394601A8FFF7B6FF0F24F2E781
S1131C20FFF702FF0190EEE70080005040540000EF
S1131C3038B5194B0546D3F824310C4603F0070395
S1131C40013B052B20D8DFE803F00B0F13171B0310
S1131C50FFF7D2FE042305B1286004B1236038BD28
S1131C60FFF778FE0523F6E7FFF7C6FE0323F2E746
S1131C70FFF7DAFE0223EEE7FFF7D4FE0723EAE7D5
S1131C80FFF768FE0623E6E704484FF46761FFF7B1
S1131C90DDFE00231846DEE70080005040540000BB
S1131CA038B5124B0546D3F840310C4603F0030314
S1131CB0022B0FD0032B15D0012B0FD00C4841F26F
S1131CC04811FFF7C3FE0023184605B1286004B18C
S1131CD0236038BDFFF7B4FE0823F6E7FFF7A8FE3C
S1131CE00923F2E7FFF7A8FE0B23EEE7008000507C
S1131CF04054000038B5154B0546D3F800320C4665
S1131D0003F00703013B032B18D8DFE803F00F139C
S1131D100B02FFF747FE0E23800A05B1286004B1C9
S1131D20236038BDFFF788FE0B23F6E7FFF780FE3C
S1131D300923F2E7FFF784FE0823EEE7044841F2A3
S1131D401D31FFF783FE00231846E6E700800050AC
S1131D504054000038B5124B0546D3F840320C46C7
S1131D6003F00303022B0FD0032B15D0012B0FD04C
S1131D700C4841F2B021FFF769FE0023184605B173
S1131D80286004B1236038BDFFF75AFE0823F6E744
S1131D90FFF74EFE0923F2E7FFF74EFE0B23EEE7B3
S1131DA0008000504054000038B5124B0546D3F86B
S1131DB060310C4603F00303022B0FD0032B15D024
S1131DC0012B0FD00C4841F27611FFF73FFE0023A0
S1131DD0184605B1286004B1236038BDFFF730FE12
S1131DE00823F6E7FFF724FE0923F2E7FFF724FEB2
S1131DF00B23EEE700800050405400000D4BD3F855
S1131E00203203F00303012B12D0022B01D1FFF780
S1131E1047BF10B40A4608B1002303600AB1002387
S1131E20136040F69A6104485DF8044BFFF70EBE58
S1131E30FFF7AABE008000504054000038B5FFF7F9
S1131E40D7FD4FF40031174A174B91661D6F0446B6
S1131E502A0B12F00E0FC5F3033505D002F00B0266
S1131E60032A01D00F2D16D141F671300F4B05FB1B
S1131E700444DA69D8630E499B688C4223F4401306
S1131E800A4988BF43F4801302F480328B600AB19C
S1131E900023CB6338BD4FF41D710648FFF7D6FD10
S1131EA0E2E700BF009000500080005000000350A3
S1131EB0005A620240540000B0F5207F35D010B5BE
S1131EC01ED8B0F5007F29D001D9012010BD10B172
S1131ED0B0F5C07FF9D11D4B1C6F230B13F00E0F0F
S1131EE0C4F303340AD0032C16D0072C23D00F2CB0
S1131EF02AD04FF41D711648FFF7A8FD601C10BDD1
S1131F00B0F5607FE1D1114BD3F88030C3F30114F5
S1131F109B06F3D5032C10D1042010BD0B4BD3F832
S1131F209000C0F30460013010BD084B186FC0F37B
S1131F30802001307047082010BD4FF421710448FF
S1131F40FFF784FD601C10BD102010BD0080005000
S1131F504054000070B5450904460E461AD0012DC0
S1131F600CD0022D1CD00F4D04F01F045EB10120D3
S1131F7005F5805500FA04F42C6070BD0A4D04F098
S1131F801F04002EF3D1012005F5005500FA04F4D6
S1131F902C6070BD40F21B310448FFF757FDE3E7A6
S1131FA0034DE1E76082005064800050405400001B
S1131FB06880005030B585B00023B0F5807F019370
S1131FC000F2EA801F2840F227812038E02800F23E
S1131FD02481DFE810F059014C0159014C0135010D
S1131FE03501350135014C014C0183015C01FF00D1
S1131FF089015C014C014C014C01220122012201A6
S11320002201220122012C017D014C014C014C01D1
S1132010F10067014C012201220122012201220167
S11320202201220122012201220122012201220194
S11320305901220159015901590135012201220195
S11320402201220122012201220122012201220174
S113205022012201220159015901220122012201F6
S11320602201220122012201220122012201220154
S11320702201220122012201220122012201220144
S11320802201220122012201220122012201220134
S11320902201220122016D012201220122012201D9
S11320A02201220122012201220122012201220114
S11320B02201220122012201220122012201220104
S11320C022012201220122012201220122012201F4
S11320D022012201220122012201220122012201E4
S11320E022012201220122012201220122012201D4
S11320F022012201220122012201220122012201C4
S113210022012201220122012201220122012201B3
S113211022012201220122012201220122012201A3
S11321202201220122012201220122012201220193
S11321302201220122012201220122012201220183
S11321402201220122012201220122012201220173
S11321502201220122012201220122012201220163
S11321602201220122012201220122012201220153
S11321702201220122012201220122012201220143
S11321802201220122012201220122012201220133
S11321902201220122017001B0F5906F00F09880B5
S11321A01ED9B0F5D06F00F09F800CD9B0F5E06F68
S11321B078D0B0F5F06F30D101A80021FFF7F4FD1D
S11321C0019805B030BDB0F5B06F00F08780B0F570
S11321D0C06F29D101A80021FFF762FD0198F0E743
S11321E0B0F5407F53D031D9B0F5607F25D1FFF7EA
S11321F0BDFB404B0446D3F880309A06C3F3011567
S113220006D5032D04D04FF421713B48FFF71EFC83
S1132210681CB4FBF0F0D4E7B0B337484FF48F61D7
S1132220FFF714FC0198CCE7B0F5A06FF5D101A835
S11322300021FFF7E3FD0198C3E7B0F5806FECD10F
S113224001A80021FFF7A0FC0198BAE7B0F5007FD0
S11322500AD1FFF78BFB274BD3F89030C3F3046309
S11322600133B0FBF3F0ACE7B0F5207F09D1FFF701
S113227099FB204B1B6FC3F380230133B0FBF3F0B6
S11322809FE7B0F5C07FC8D1FFF78CFB99E7FFF754
S113229089FB184B1B6FC3F380230133B0FBF3F0AE
S11322A040088EE701A80021FFF754FD019888E754
S11322B0FFF75CFB85E700224FF0E02302921B69E5
S11322C05B07E1D402A803A9FFF7EAFC029878E7C8
S11322D001A80021FFF7ACFC019872E701A80021D6
S11322E0FFF77CFC01986CE701A80021FFF702FDD1
S11322F0019866E7008000504054000008B54FF490
S1132300C070FFF757FE0649064A88428CBF4FF457
S113231080600020136F23F480630343136708BDB8
S113232080F0FA020080005000B585B00023B0F5BB
S1132330807F019300F0A1801DD9B0F5D06F00F02B
S11323408A8045D9B0F5006F6CD035D9B0F5086FE7
S11323506ED15D4BD3F8003103F00303022B00F080
S1132360A080032B00F09980012B00F0A2800120B3
S113237005B05DF804FB52283AD8232858D92438EC
S11323802E2855D8DFE800F05B5B5B5B5454735434
S11323902E675454545454545454545461545454FF
S11323A0541E6D5454545454545454545454545406
S11323B05454545454545B00B0F5E06F51D0B0F50C
S11323C0F06F35D1002001A9FFF7EEFC0198CFE7AB
S11323D0B0F5A06F39D01FD9B0F5B06F47D0B0F5C4
S11323E0C06F25D1002001A9FFF75AFC0198BFE76F
S11323F080281DD1344B186F00F00700431E032BB7
S11324005BD801A252F823F0AF240000AB240000F3
S1132410712300009F240000B0F5806F0FD0B0F549
S1132420906F05D1002001A9FFF702FC01989FE7F6
S1132430264840F25951FFF709FB019898E700201C
S113244001A9FFF7A1FB019892E7002001A9FFF77A
S1132450D5FC01988CE7002001A9FFF74BFC0198FB
S113246086E7002001A9FFF775FC019880E70020AA
S113247001A9FFF7B3FB01987AE74FF0E02202933A
S113248013695B0703D5FFF78DFA0C2070E702A8E8
S113249003A9FFF705FC03986AE7FFF7C3FA0720CF
S11324A066E7FFF7CDFA082062E7052060E702201F
S11324B05EE7FFF7A1FA03205AE7044840F2AA4175
S11324C0FFF7C4FA019853E700800050405400001D
S11324D038B5036804460F2B00F2F08063680F2BB5
S11324E000F2E680A3680F2B00F2DC80237B0F2B25
S11324F000F2D280637B0F2B00F2C880A37B3F2BBA
S113250000F2BE80E37B3F2B00F2B4802369032BEF
S113251000F2AA806369032B00F2A080E369012B17
S113252004D940F60D316848FFF790FA8020FFF790
S1132530FBFE032858D04FF4002545F60E03022075
S11325400121624A556602F54052C2F88030604B60
S1132550986203F580539962936DD903FCD4D4E94E
S11325600003E17B1B0543EA0063207B0B43617B93
S113257043EA004343EA0133A17B43EA8113136135
S11325806369916920691B0643EA806301F0004195
S1132590A07E0B430343207E617E43EA004343EA6B
S11325A001239361136AE16923F00D03E9B1E07E2D
S11325B043EA80030B4343F008031362936A94F8DD
S11325C0230094F8201023F03303034343EA411318
S11325D094F8221043EA4103936294F824301BB127
S11325E03C4B3D4AC3F8802038BDE07E94F821106E
S11325F043EA80031362906A94F820500B0143EA83
S1132600451320F033010B4343F0010331493348B0
S113261093628B6D30EA0303FBD102232C482D4ACD
S113262083620B65936D5B00FCD44FF0004013692B
S1132630A16823F4700343EA01531361244994F815
S11326402230886113B90222254B9A6294F8233010
S1132650002BC2D10122224B9A62BEE740F60A3116
S11326601948FFF7F3F959E740F607311648FFF721
S1132670EDF94FE740F604311348FFF7E7F945E772
S113268040F601311048FFF7E1F93BE740F6FE213F
S11326900D48FFF7DBF931E740F6FB210A48FFF765
S11326A0D5F927E740F6F8210748FFF7CFF91DE7EA
S11326B040F6F5210448FFF7C9F913E740F6F22183
S11326C00148FFF7C3F909E74054000000900050A7
S11326D000D0005000C00050F1A7FFFF03000140EC
S11326E000E00050014B93F9000070476412002091
S11326F010B54FF4001402231849194A4C6653606C
S1132700936813F48033FBD1012804D05362002270
S1132710134B5A6010BDFFF76FF9124B984215D056
S113272003F5122303F5F863984213D00E4B00EB24
S11327308002400AB3FBF0F0520A094B0121DA622D
S1132740002218635962064B5A6010BD45F67A1090
S1132750064AF2E745F61A00054AEEE700900050F3
S11327600040025000F0490264666666D8B805006D
S1132770BBCF050038B54FF40031174A174B9166AB
S11327801D6F04462A0B12F00E0FC5F3033505D056
S113279002F00B02032A01D00F2D16D141F671303D
S11327A00F4B05FB0444DA69D8630E499B688C42DD
S11327B023F440130A4988BF43F4801302F480329F
S11327C08B600AB10023CB6338BD4FF41D710648FA
S11327D0FFF73CF9E2E700BF009000500080005092
S11327E000000350005A62024054000010B5B0F5D6
S11327F0207F69D00AD8B0F5007F58D01DD9BDE834
S1132800104040F2FE213F48FFF720B9B0F5607F49
S1132810F5D14C1E012C06D9042904D040F2E12143
S11328203848FFF713F9384AD2F8803023F03003E0
S113283043EA0413C2F8803010BD10B1B0F5C07F74
S1132840DDD1102901F1FF3455D8304B23FA01F1C1
S1132850CA0750D5FFF7F2FA4FF480302A4A2C49C0
S1132860136F43F4806313670867136F23F4704393
S113287043EA04331367FFF795F8264AD2F8843005
S1132880DB06FBD4D2F88410C1F38111C1F102013B
S1132890FFF770FFFFF732FD8020FFF78BFB1E4B25
S11328A09842C9D84FF480321C4B1A6710BD4C1E95
S11328B01F2C1AD8144BD3F8901021F0F85141EA88
S11328C00461C3F8901010BD4C1E012C07D80E4BA8
S11328D0196F21F4806141EA8421196710BD4FF416
S11328E03E710848FFF7B2F8F1E740F2F2210548DB
S11328F0FFF7ACF8DEE740F2B5210248FFF7A6F88F
S1132900A8E700BF405400000080005016010100F9
S11329100090005000400050005A620200A0005095
S113292070B5B0F5807F0C4600F0F0801AD9B0F590
S1132930D06F00F0CF804CD9B0F5006F78D032D989
S1132940B0F5086F40F084804C1E072C00F216810D
S1132950DFE814F019011401C40114011401140175
S11329609A01C80152284FD8232871D924382E2817
S11329706ED8DFE800F0747474746D6D9C6D39AFBB
S11329806D6D6D6D6D6D6D6D6D6DBC6D6D6D6D1E73
S11329908C6D6D6D6D6D6D6D6D6D6D6D6D6D6D6D44
S11329A06D6D6D6D7400B0F5E06F70D0B0F5F06FC3
S11329B04ED1083C032C00F2F780BA4B53F8241094
S11329C0B94AD2F8603123F003030B43C2F86031F3
S11329D070BDB0F5A06F00F08A8023D9B0F5B06F58
S11329E065D0B0F5C06F33D1083C032C00F2E3800E
S11329F0AE4B53F82410AC4AD2F8403123F0030311
S1132A000B43C2F8403170BD802821D18B1E052BA9
S1132A1000F21F81DFE813F0320125011D01DD0002
S1132A201D013501B0F5806F19D0B0F5906F0FD14D
S1132A30023C052C00F2B1809D4B53F824109A4AB5
S1132A40D2F8243123F007030B43C2F8243170BDBC
S1132A504FF40F61BDE870409648FEF7F7BF032CB2
S1132A6000F06581052C00F05981022C00F054819E
S1132A7040F28C618F48FEF7E9FF00218A4AD2F8C0
S1132A80203123F003030B43C2F8203170BD083C0E
S1132A90032C00F24581884B53F82410824AD2F863
S1132AA0403223F003030B43C2F8403270BD022CC2
S1132AB007D00F2C4FD040F255617E48FEF7C6FF79
S1132AC00024794BD3F8801121F003010C43C3F89F
S1132AD0804170BD083C062C00F2DC80DFE814F075
S1132AE0000144004400D800DA00DA00D6000F2CBC
S1132AF000F01081102C30D102216B4AD2F8203220
S1132B0023F003030B43C2F8203270BDA1F1080483
S1132B10082C57D8DFE814F0090009005600090012
S1132B20E80056005600560009004FF48031634B0C
S1132B305D48634A406E5966136A43F001031362A9
S1132B40C2034FF0E0225CBF5E4B5966136923F069
S1132B500403136170BD0124B3E740F2BD7155480D
S1132B60FEF774FF0021C8E701214F4AD2F8003272
S1132B7023F007030B43C2F8003270BD40F26F71BB
S1132B804C48FEF763FF0021474AD2F8003123F096
S1132B9003030B43C2F8003170BD40F21371454882
S1132BA0FEF754FF00214AE740F2EE614148FEF788
S1132BB04DFF002104E74FF4DA613E48FEF746FF7B
S1132BC0002118E740F2B461BDE870403948FEF7CF
S1132BD03DBF002602250121022000F089FBFFF7FA
S1132BE02DF94FF48031304A136F43F48063136737
S1132BF0324B1967136F23F007032B431367FEF758
S1132C00D1FE314AD2F8845015F01005FAD1D2F829
S1132C108410C1F38111C1F10201FFF7ABFD012161
S1132C20284600F0BFFBFFF769FB8020FFF7C2F9DD
S1132C30264B984203D84FF48032224B1A67002E59
S1132C407FF4C6AE032C7FF4C3AE0122204B9A62FC
S1132C5070BD00264FF4C2611648FEF7F7FE3546F4
S1132C60B9E74FF40026012214481A4946668E6AD1
S1132C70194B25469A62C6F34006ACE700260125A7
S1132C80A9E700260425A6E703217DE704216CE7D4
S1132C9003216AE740F233710648FEF7D7FE0021AC
S1132CA063E700BF8854000000800050885400008F
S1132CB098540000405400008854000000900050D4
S1132CC000C0075000A0005000400050005A6202AB
S1132CD000E0005000C0005000D00050012153E734
S1132CE0022142E702214FE74FF48031114B124891
S1132CF0124A406E5966136A23F0010313624FF0BF
S1132D00E022C3035CBF0E4B5966136943F004030E
S1132D10136170BD0121F0E60321AFE60121ADE6A8
S1132D2040F63E010748FEF791FE0021B6E6022177
S1132D30A4E600BF009000500080005000C007507F
S1132D4000A00050405400002DE9F0474FF4C02586
S1132D5001210646B84CB94AB94B656655685960B5
S1132D6093699907FCD13368B64A934240F22381B0
S1132D70B54A934200F2FB80B388B3F5967F40F2E4
S1132D800081B3F5805F80F00681F388B3F5805F3E
S1132D9080F00B81AD4AD2F8844014F01004FAD1CB
S1132DA0D2F884303068C3F38113012B00F0D4804F
S1132DB0A74F00233A46A74901E052F8101F884262
S1132DC002D35168814264D20133192BF5D1A24850
S1132DD0DFF89892FEF752FE00F07F0049EA0009FE
S1132DE08020FFF7A1FA05285ED00027DFF8808253
S1132DF0D8F80C3013F00603FAD1D8F808A0C8F8B4
S1132E000890D8F8082009F4F81902F4F81291454A
S1132E1017D1B188F28842EA01428849CA60B2688F
S1132E20032A00F02781082A00F0D280072A40F004
S1132E30D8808A49D1F8002142F00302C1F8002168
S1132E40CFE040F637218648FEF700FE15F0010575
S1132E50C8F808A047D04FF001080722784B1A6140
S1132E600122A3F580535A60A3F580531D6915F020
S1132E700705FBD08020FFF757FA05283DD0B8F1AD
S1132E80000F35D1A5F10100B0FA80F04009BDE88A
S1132E90F08707EB0313D3E9029000289AD180202E
S1132EA0FFF742FA0528A0D1FEF7C8FF4FF480319E
S1132EB06A4B1A6F42F480621A675F4A11671B6F8C
S1132EC01A0B12F00E0FC3F3033800F0A68002F0C1
S1132ED00B02032A03D0B8F10F0F40F099800027AA
S1132EE008F1010482E78020FFF71EFA052802D0CA
S1132EF00020BDE8F0874FF00108002F40F0D0809B
S1132F00FEF750FD336804468342C0F0C380FEF7E9
S1132F1021FDA042C0F0B8803668FEF71BFD864252
S1132F2050D14A4AD2F88430DB06FBD4D2F884105C
S1132F302046C1F38111C1F10201FFF71BFCFFF729
S1132F40DDF98020FFF736F8464B984297D84FF4C6
S1132F508032454B1A6792E7424B98427FF628AF7E
S1132F603F484FF41F61FEF771FD2046C1E740F66C
S1132F70E6113B48FEF76AFDB388B3F5967F3FF64A
S1132F8000AF40F6E9113648FEF760FDB388B3F5AB
S1132F90805FFFF4FAAE40F6EA113148FEF756FDC1
S1132FA0F388B3F5805FFFF4F5AE40F6EB112C48DF
S1132FB0FEF74CFDEEE640F6E5112948FEF746FD26
S1132FC03368D5E640F66D212548FEF73FFDA8E7B6
S1132FD02249D1F8002122F0030242F00202C1F892
S1132FE00021327D307B002A727D14BF0421002130
S1132FF0002A18BF402332694FF0000842EA400219
S11330000A4313430D4A93603068FEF7A9FC24E792
S11330104FF41D711248FEF719FD08F10104B8F1CF
S1133020000F43D0022C7FF4E0AE04214FF4C070B3
S1133030FFF7DCFB0127D9E60090005000C00150E7
S113304000E001509FBB0D0000B4C40400400050D8
S1133050B0540000A0BB0D0040420F00008000509F
S113306040540000005A620200A00050001F408239
S1133070000001501149D1F8002122F0030242F06E
S11330800102C1F80021ACE740F66C210C48FEF7C0
S1133090DDFC41E740F66B210948FEF7D7FC36E733
S11330A021464FF4C070FFF7A1FB29E702214FF43A
S11330B0C070FFF79BFB274698E600BF00800050D6
S11330C040540000EFF3108072B6704700B962B646
S11330D0704700BFEFF31180302383F311887047EA
S11330E080F31188704700BF38B51A4B1B681BB1B9
S11330F0194A5268012A00D138BD184A8020C2F802
S11331000031FFF711F9052803D00122144B5A604E
S113311038BD4FF4C070FEF7CFFE0128044612D02C
S1133120072501210F480E4B0B4A056159601369AD
S1133130DB07FCD5012CDFD12146BDE838404FF434
S1133140C070FFF753BB02214FF4C070FFF74EFB72
S1133150E6E700BF6812002000C001500080005064
S113316000D0015000E00150044A4178536F23F429
S1133170407343EA01235367704700BF0040005087
S1133180704700BF704700BF38B5B0B91E4A136915
S113319043F00403136101F0A1F8FFF7F1FFFFF717
S11331A091FF02F091F8FFF791FFFFF7EBFF01F0B9
S11331B0A9F8BDE83840FEF7F5BB4FF40030002411
S11331C01249134B134A1C6048665268124D012A77
S11331D004BFD5F800211A600B4A136943F00403B5
S11331E0136101F07BF8FFF7CBFFFFF76BFF02F0F1
S11331F06BF8FFF76BFFFFF7C5FF01F083F8BDE83D
S11332003840FFF771BF00BF00ED00E000900050B0
S11332106812002000C001500080005038B590B9F9
S11332201A4A136943F00403136101F057F8FFF7D6
S113323049FF02F049F8FFF749FF01F063F8BDE8E0
S11332403840FEF7AFBB4FF4003000241049114B57
S1133250114A1C6048665268104D012A04BFD5F813
S113326000211A60094A136943F00403136101F051
S113327035F8FFF727FF02F027F8FFF727FF01F0E3
S113328041F8BDE83840FFF72FBF00BF00ED00E074
S1133290009000506812002000C0015000800050CF
S11332A030B400244FF40030064B0749074A1C6031
S11332B048665268012A03D1054DD5F800211A60E9
S11332C030BC7047681200200090005000C00150CC
S11332D000800050FFF708BF034A0179D36E23F042
S11332E030030B43D366704700400050704700BF63
S11332F02DE9F0410546274AD2F88430D806FBD49C
S1133300D2F88430C3F381139D4227D0FEF72EFBFD
S1133310012D074624D0FFF7D5FE4FF000721E4B57
S113332006465A662846FFF7E1FF4FF48063194CBE
S11333306A1E9340DFF86880236707E0D4F884307E
S11333409B0606D4D4F88430990611D4636E9A018E
S1133350F4D53046FFF7BAFE022D15D0BDE8F08152
S11333600E4B98420AD801213846FFF703FAD2E7F8
S113337040F24A714046FEF769FBE7E740F23C71D0
S11333800748FEF763FBEEE73846BDE8F04100214D
S1133390FFF7F0B90040005000600050005A62028C
S11333A04056000010B50C4680B10A4B21461B78EC
S11333B013B1094B984204D9BDE810400220FFF72D
S11333C097BF0120BDE81040FFF792BFFEF7CEFA89
S11333D0EBE700BF6C120020005A620210B50A4CE1
S11333E003782370FEF7C2FA2378012113B1074B47
S11333F0984204D9BDE810400220FFF779BF08467F
S1133400BDE81040FFF774BF6C120020005A62023E
S1133410704700BF70B501224FF000464AF6CD3424
S11334201449154D154B6E664A60596C1C64114065
S113343088B99868C40704D511488260DA6AD0074D
S1133440FCD501220E4B5A6011B10C4B0D4A1A6483
S1133450FFF7DEFF70BDDA6A1207FCD420250120D5
S1133460074C044B054A65629860536A9B06FCD579
S1133470EAE700BF00500950009000500040095096
S1133480006009503254FFFFF8B501254FF00047A2
S11334904AF6CD33174E184C184A77666560556C5A
S11334A01364437816495B0043F00103CB639368CC
S11334B08178C27823F0740305F0010543EA01130F
S11334C00AB143F004030D4CA3600279837943EA03
S11334D0022323614279C37943EA022363610078BA
S11334E0FFF798FF0DB1074B2364FFF791FF01200D
S11334F0F8BD00BF00900050005009500040095032
S1133500004000503254FFFF2DE9F8439C4B984291
S113351023D09C4B984209D040F2FB119A48FEF705
S113352095FA6FF003021046BDE8F883974BC26B1F
S11335309C6812F4C06E40F0D48040250526032711
S113354000F5005C1978082900F21281DFE801F027
S1133550836BBA91AE50461B07008D4BE7E7D2054B
S113356042D54FF48074092100F50052D46393F9D5
S1133570012019700021012A0164D4D10A4659702E
S11335801046BDE8F88391062ED51A79466A04EBF5
S1133590C20445697F4A21892A40B2F5003F00F000
S11335A0BB8000F500522025D5635A88914235D955
S11335B06468551C5D80A6545A8891422ED904240F
S11335C00129C46004D901398A4201D10822C260A8
S11335D01A78092A08D193F90120CBE7110600F1E2
S11335E0A880520600F1888001221046BDE8F883C5
S11335F01A79598804EBC208B8F80890894500F292
S1133600A9800132D2B21A716188A3F802E011F0E4
S1133610040F60D1C90701D4012A5DD9082102220F
S11336201970C260E0E7110600F183805206DBD511
S11336306288CCF83C50D10600F1958092075DD5A4
S113364007211A79197004EBC2042389012BCBD109
S11336500823C360C8E761882288CD0655D5120ABD
S113366002F0060242F0F002012119704263C160C7
S1133670BAE761882288CE0643BF120A02F0060226
S113368042F0F00202F0FE024D0709D5197942F02A
S1133690010204EBC1042189012904BF0821C1608E
S11336A0042401211C70C16042639DE7110640D4CB
S11336B0510699D56288CCF83C5052071ED5072292
S11336C01A7091E7110634D451068DD56288CCF86E
S11336D03C50920712D51F70C26B12F4C06F3FF4B6
S11336E031AF12F400711DD04FF6095400211C8033
S11336F06FF00202016416E7CCF83C501E70C26BF6
S113370012F4C06F3FF41EAFEBE702F0FE028C0729
S113371048BF42F00102A7E74FF40055426A42193C
S1133720D56340E756050ED4092193F90120197099
S113373020E780254FF60871022200F50054E56366
S11337401980C26050E74FF609646FF001021C80D3
S11337500164E8E64A1CD8F804405A800622615CF9
S113376041631A7040E702221A70237843633BE7EF
S11337704FF6093400211C806FF004020164D2E684
S11337800000015A00800650885600007C12002078
S11337907012002020000200F8B50446002840D032
S11337A023781B0613F0604F2FD1E3780F2B33D807
S11337B001212020FEF7CEFB01212120FEF7CAFBC8
S11337C001220020FF274FF000464FF0FF354FF451
S11337D00011164B5A60227812069A6094F801C0C0
S11337E0A27842EA0C429A61114A9F629863186473
S11337F05E6503F500531D65C2F88011E3781B0173
S1133800DBB282F815331160F8BD92210948FEF746
S11338101DF9E3780F2BCBD9A3210648FEF716F93F
S1133820C6E791210348FEF711F9B9E700000450F7
S113383000E100E0D0560000F8B50126C3B2072825
S113384005460C46174606FA03F654DC002C58D0FD
S1133850236823F47C1323F00F03002B5CD1A37A99
S11338601B0413F47C0F60D1E37A1B0513F07E6F05
S113387065D1237B590511F0FE5F6AD1394894F86C
S11338800DC00665236827F0030200F50050364F8B
S113389040F8253005EB450507EB0515C5F860C074
S11338A0E37AA07A1B0543EA00430B43EB652A67DE
S11338B0FFF710FC7B6D33437B65237A13B13B6CBC
S11338C033433B64637A1BB1274A936B334393635B
S11338D02279A379244943EA0243224A9361657910
S11338E0E379224C43EA0543A36156638E64BDE841
S11338F0F840FFF7F5BBEC211D48FEF7A7F8002CB4
S1133900A6D1ED211A48FEF7A1F8236823F47C130D
S113391023F00F03002BA2D0F0211548FEF796F8F0
S1133920A37A1B0413F47C0F9ED040F209111048B3
S1133930FEF78CF8E37A1B0513F07E6F99D040F202
S11339400B110B48FEF782F8237B590511F0FE5F3B
S113395094D040F20D110648FEF778F8237B590500
S11339608CE700BF002004500000045000100450F5
S1133970D056000010B50124C3B2072804FA03F49A
S11339800BDCFFF7A7FB084B5A6D22EA04025A65C9
S11339909C62BDE81040FFF7A3BB40F297110348B7
S11339A0FEF754F8EDE700BF00000450D0560000C5
S11339B0F8B50125C3B20728044605FA03F516DC59
S11339C0FFF788FB0D4B04EB44041F6D5E6B03EBA8
S11339D00414646EFFF784FB354206D1C4F30A1065
S11339E008B93D4200D10130F8BD0020F8BD4FF4C4
S11339F0EE710348FEF72AF8E2E700BF0000045026
S1133A00D056000038B5022805460C4617D8E3788E
S1133A10627821785B0143EA820322790B4343EA0B
S1133A20021305EB4502920002F1B042012913632F
S1133A3000D038BD044BA27843F8252038BD4C2172
S1133A400248FEF703F8E2E7E880035064570000F9
S1133A504FF0B0435A68002A32D1002834D05B6852
S1133A60F3B14FF0B04301E09A6A12B15A68002AE8
S1133A70FAD1A8B94FF0B04301E09A6A12B15A687A
S1133A80002AFAD14FF0B0430222DA6001E09A6AC8
S1133A9012B15A68002AFAD101220C4B5A607047BD
S1133AA001210B4A4FF0B043516001E09A6A12B110
S1133AB05A68002AFAD14FF0B0430122DA60704705
S1133AC05B68002BD5D0CCE7704700BF00200058BE
S1133AD00010005830B54FF0B0435A685ABB01216A
S1133AE08278C378002A027814BF4FF0020E4FF098
S1133AF0000E002B14BF4FF0040C4FF0000C002AF2
S1133B0018BF0C464FF0B04208BF02240C4B59605A
S1133B1043790579DB00407843EA0513034343EA1C
S1133B200E03084843EA0C0393604160D46030BD3F
S1133B309A6A002AD3D05A68002AF9D1CFE700BF85
S1133B40002000580010005800F084B8F8B500F0C8
S1133B506BFD044608B12046F8BD00F031FE4FF479
S1133B60167200FB02F2DFF840C002F5742202F282
S1133B703F22ACFB0202094D094F0A4B920C2E68FE
S1133B8003F128013A6043F8042B8B42FBD102EB8A
S1133B90C20332441A4420462A60F8BD9012002021
S1133BA0C41200209412002083DE1B4308B50122B6
S1133BB0034B1A7000F0F8FD024B186008BD00BFFB
S1133BC08C120020C012002070B5174C237803B962
S1133BD070BD00F0E9FD154B00211A68144D801AE0
S1133BE0012838BF01202B7821701249124C51F85A
S1133BF0232041F823000133D9B22368121A9B1AF7
S1133C00236003F109020D4B0D4EA3FB0242A3FBFB
S1133C100143DB08306003EB83030A48D208A1EBBD
S1133C20430302602B7070BD8C120020C012002070
S1133C30BC1200209412002090120020CDCCCCCCD9
S1133C4088120020C4120020014B1868704700BF7E
S1133C50C412002030B54FF0200E4FF400254FF46D
S1133C608050094B09490A4A0A4C03F5005C81F863
S1133C702CE36566CCF87420CCF87020C1F884017C
S1133C80486003445A6730BD00C0005000E100E0C2
S1133C90010000A000900050044A936DDB0701D599
S1133CA0012070470028F8D1704700BF00C00050C1
S1133CB010B50D4B1C6FE2070CD414F000531CBF5D
S1133CC00A4A1367002C00DB10BD4FF00042074B7B
S1133CD01A6710BD012203F500531A67FFF774FF3A
S1133CE000F038FAE9E700BF00C0005000E00050DF
S1133CF0F8B5154B06460F4653F8215003281DD836
S1133D00DFE800F01916130245F080050F4B1C681C
S1133D1054B163681A68154203D0394630465B686B
S1133D2098472468002CF4D1F8BD45F02005EDE750
S1133D3045F00805EAE745F00205E7E740F22131DE
S1133D400348FDF783FEE1E70C580000F812002059
S1133D50B057000038B5144C23786BB1134D2B7851
S1133D60BBB9002000F022FB38B901221048114BE6
S1133D70114900781A70087038BD00F021FB002347
S1133D800B4D012128782370FFF7B2FF01232B701C
S1133D9038BD00F0E7FA002300202B7000F006FB8A
S1133DA00028E2D0E9E700BFF6120020F11200205B
S1133DB0E8120020F51200200813002010B5FFF7C8
S1133DC081F9054B1B781BB90446FFF7C3FF204656
S1133DD0BDE81040FFF77AB9F012002010B5174C77
S1133DE02378FF2B11D05BB9F0B10023144A0133BF
S1133DF012782370012A02D9124B1B7883B110BDAB
S1133E000028F3D1013B237010BD0028FAD04FF4F1
S1133E1067710D48FDF71AFE2378002BE6D1E4E71D
S1133E20BDE81040FFF796BF40F29E310648FDF70B
S1133E300DFE2378013B2370E6E700BFFC1200204F
S1133E40E8120020F5120020B057000070B5FFF70B
S1133E5039F9124E0546337863B900F0E5FB0446A0
S1133E60B8B90F48FDF706FE0E4B1C6000F0A8FC25
S1133E700D4B186000F08CF900F0DCFA00240146C8
S1133E8001230A4A284611603370FFF71FF92046C0
S1133E9070BD2846FFF71AF9204670BDF2120020C3
S1133EA0F81200200C13002004130020EC12002050
S1133EB0064A074B126802FB00F000F5742000F27A
S1133EC03F20A3FB0030800C704700BF0413002088
S1133ED083DE1B432DE9F04F87B0EFF3108572B6F4
S1133EE000E000BF00F0BEFA002800F08180DFF897
S1133EF03482814E814CDFF830A2814FDFF82C925E
S1133F00DFF82CB298F800303078002B77D10028F5
S1133F1040F0858005A900F011FC58B9794B059A49
S1133F201B689A4200F2AF800120FFF757FF01237C
S1133F3088F800303378002B71D1734B1B78002B39
S1133F4000F0978002210B46207888426CD0002232
S1133F508AF800203A78002A00F081802170022B30
S1133F6072D0207800F04AFA3B7813B1674B1B7883
S1133F70237000E000BF05B962B6EFF3108572B696
S1133F8099F800303BB1002389F800305F4B20786A
S1133F901B78984272D0584600F080FB00F066FA15
S1133FA00028AFD1584B8AF800001B78B3B13870A1
S1133FB0574F3B7843B190E0012000F01FFA05B958
S1133FC062B6EFF3108572B6002000F0EFF9002816
S1133FD0F2D000F0F5F900234B4A137098F8003042
S1133FE0002B6CD100212078FFF782FE0023237080
S1133FF000E000BF05B962B607B0BDE8F08F28B98C
S1134000444840F29E31FDF721FD30780023013809
S1134010C0B2307088F8003000283FF47BAF012133
S113402020780B46884292D19AF80020002A96D034
S11340302278022A93D1002202938AF8002000E019
S113404000BF029B022B8CD12F4B1B78002B88D1F5
S1134050314B1B786BB301232B4A137081E7CDE9F5
S11340600213FFF745FE02999AF80020039B217082
S1134070DCE700F031F902210B4665E701212170EC
S1134080FFF736FE87E7254B1B68029300F0D6F94D
S1134090029B1B1827D405998B42BFF445AF02221B
S11340A0C91A00235846CDE900321D4A00F026FB08
S11340B040E700F051F90122154B1A70CBE7337831
S11340C02BB940F29E311348FDF7C0FC3378013B15
S11340D03370002388F8003084E7029000F042F93E
S11340E00298387070E740F272310A480293FDF783
S11340F0ADFC029BCFE700BFFC120020E8120020B9
S1134100F5120020EC120020F61200200813002003
S1134110F1120020B0570000FF1200200C13002001
S1134120BD3D000000130020FE120020F412002008
S1134130C812002010B5FEF7C5FF0022044B1C78FE
S11341401A70FEF7C3FF00F017FC2043C0B210BD85
S1134150F312002038B5094B1B7813B1084C2378AF
S113416003B938BD00F02CF90022012305480649A3
S1134170064D22702B7002700B7038BDE8120020BF
S1134180F5120020F6120020F3120020F412002091
S1134190F0B583B00025474E68468DF80050FFF710
S11341A01DF93378002B7DD001A88DF804508DF8CB
S11341B00550FEF7D9FF4020FFF77AFE3E4C3570DC
S11341C02368184420604FF400274FF400363B491D
S11341D03B4A0B6F3B4803F007031360D1F82051AF
S11341E0D1F824214766466600F598308069032B90
S11341F000F002002ED002F0070205F00305022DA4
S113420018BF022A0CBF012200222F4B1A70C8B11A
S11342104AB9D1F8002102F00302A2F10102B2FA74
S113422082F252091A70254BD3F8003103F00303CC
S1134230022B1BD0032B3AD0012B35D0D12123489C
S1134240FDF704FC6420FFF733FE23681844206064
S113425003B0F0BD01221C4B1A700028F2D0174B9A
S1134260D3F8003103F00303022BE3D1FDF7E8FB9D
S11342700028E7D00023411E0E461946144AD5688B
S11342800246C5F30B051348013505EB8505E5FB2F
S11342900061304600F0A6FCFFF70AFE23681844CC
S11342A02060CFE7044C8EE7FDF7A6FBE0E7FDF7BF
S11342B0B9FBDDE71810002018130020008000501F
S11342C01013002000900050161300201C5800000A
S11342D000C0015040420F00FEF7E2BF074B1A78BE
S11342E002B970470021064A1970136F23F00703BF
S11342F043F001031367FDF755BB00BF14130020FF
S113430000800050104B1B7803B9704710B5022091
S113431000F0EEFB00B910BD00F040FA0028FAD01E
S11343200A4B9A6DD20302D5DB6D9B0707D4012497
S1134330074B1C70FFF73AFC064B9C6210BD012230
S1134340044B9A6210BD00BF1613002000C0005039
S11343501513002000D000500122014B1A70704741
S1134360141300200D4B1B7893B110B50C4C23781B
S11343705BB90C4B9A6DD20302D5DB6D9B0708D455
S1134380FFF714FC0122084B9A620023237010BD2E
S113439070470122044B9A6210BD00BF161300201F
S11343A01513002000C0005000D00050034B1B78B0
S11343B00BB901207047FFF76FBC00BF1613002034
S11343C008B5FEF787FF094A0949136F086823F007
S11343D007030849034313670B7813B10122064B03
S11343E09A62BDE80840FDF7DDBA00BF00800050C6
S11343F0101300201613002000E00050022808D0FB
S1134400032810D0012807D040F2CB110748FDF74C
S11344101DBB0020FEF7B8BE054A136923F0040350
S1134420136130BF70470020FEF7F8BE1C5800002F
S113443000ED00E04FF4C870FFF73ABD08B5074B34
S1134440187818B9064B1B68184408BDFFF7FCFB25
S1134450034B00EBD0001B68184408BD1613002062
S11344601813002008B5FCF7C1F908BD10B5FFF713
S113447061FE0446FCF7C6F9042804D0022808BFEC
S11344800124204610BD0024204610BD70B4114EF6
S1134490416133687BB1002500E023465A698A42B2
S11344A00DD89C68891A1D464161002CF5D198608D
S11344B0846070BC70473060836070BC70472DB9F5
S11344C030608360511A596170BC7047A860836082
S11344D0F8E700BF3413002038B500F09DFA0B4D07
S11344E00B4B29681A68411A32B129B10024536967
S11344F08B4203D35B1A5361286038BD54619268C0
S1134500C91A002AF3D1286038BD00BF2013002047
S11345103413002038B5134D2B685B69BBB1124AC4
S1134520022014681C4400F0B3FA204600F07CFA20
S113453000210A460D482B680170D98889070DD4DB
S11345409B681BB159690A44012AF6D938BD022077
S113455000F09EFA022000F0C3FAE9E70123037099
S113456038BD00BF3413002020130020281300207E
S1134570F8B5002715469DF81CE0BDF820C0069A42
S1134580C0E9033580F804E002608760A0F806C043
S113459004460E4600F040FA2844A061C6B9E36818
S11345A0666113B12046216898477DB1FEF78AFD04
S11345B00646FFF791FF29462046FFF767FF074BA2
S11345C01B68A34206D03046FEF780FD0020F8BDEC
S11345D03546EBE7FFF79EFFF5E700BF34130020F5
S11345E0104A1368B3B1834202D115E0984206D051
S11345F01A469B68002BF9D108B1022070478368E2
S113460093602BB141695A6900200A445A6170478A
S1134610184670470028F0D183681360002BF1D14D
S1134620F6E700BF3413002070B5FEF753FD144EB7
S113463005463478D4B9134B134A1C60134B1460E9
S11346401C8000F0A5F9012000F022FA00F07AFAAB
S11346500F4B0246186070B1234640F2E7310D4813
S113466000F0C0FA01230C4C337020602846FEF79A
S113467037FD002070BD2846FEF732FD232070BDB3
S11346801C13002020130020341300202A130020C0
S11346903013002018FCFFFF2413002070B540B332
S11346A00446FEF70FFD144E0546FFF715FF30686C
S11346B0A0420CD02046FFF793FF0446A0B933680C
S11346C073B100242846FEF701FD204670BDFFF7B4
S11346D087FF044640B9336813B1FFF71BFFF0E7C7
S11346E0022000F0E1F9ECE72846FEF7EFFC204653
S11346F070BD2224204670BD341300202DE9F047FC
S113470084B09DF83090BDF834A098B100271646C7
S11347101D4688460446C761FFF7C0FF33463A4644
S113472041462046CDE9019A0095FFF721FF04B0E8
S1134730BDE8F087222004B0BDE8F087F8B505464F
S11347400F46FEF7C7FC134B06461B68B3B10024A3
S113475001E09B6893B1DA885969AA420C44F8D104
S113476000F05AF90C4D2B68C01AA0420BD3002458
S113477030463C60FEF7B4FC0020F8BD3046FEF73E
S1134780AFFC1B20F8BD00F047F92B681C44241A29
S1134790EEE700BF3413002020130020014B1878EB
S11347A0704700BF2813002038B5FEF793FC054678
S11347B000F032F904462846FEF792FC204638BD44
S11347C0014B1868704700BF301300202DE9F04FEB
S11347D083B0C207044604D4A30711D403B0BDE8D0
S11347E0F08F614A138801339BB21380FFF774FE84
S11347F05E4B1B68002BEFD0FFF78CFEA307EDD5B3
S1134800FEF768FC594E8146FFF766FE3468002CBB
S113481000F0A6804FF0000A55465746DFF8548151
S11348206369002B40F08A80234601E05A693AB953
S11348301A792179914288BF1C469B68002BF5D1D7
S11348404846FEF74DFCD4F81090B9F1000F4AD158
S1134850FEF740FC82462046FFF7C2FE5046FEF7B4
S11348603FFC2369F3B1A38B6BB1E28B13449BB27E
S1134870B3F57A7F60D3A3F57A73E383A36919F15F
S1134880FF39013BA361FEF725FC034649469946DF
S11348902046FFF7FBFDA369226948461344A36140
S11348A0FEF71EFCE368B4F806A0013513B12046F8
S11348B021689847FEF70EFC8146FFF70DFE346829
S11348C0002CADD12A4B012D1C7003D1BAF1020F7B
S11348D008BF1D70022000F0E7F8484603B0BDE8A9
S11348E0F04FFEF7FDBB00F097F8A269A0EB020AB7
S11348F04FEAEA73D14577EB030119DB0193FEF725
S1134900E9FB83462046FFF76BFE5846FEF7E8FBBB
S11349102269002AC6D0019BB9EB0A0963EB430361
S1134920002BA0DA40F20C514046FDF78FF89AE7CD
S113493023691344A361B5E7E383A4E700220C4B86
S1134940012D1A7007D0FFF7E5FD484603B0BDE816
S1134950F04FFEF7C5BBBAF1020FF4D11D70F2E7B8
S1134960034B1C70B6E700BF2A1300203413002049
S11349702C1300208058000010B5FEF7ABFB034B4E
S11349801C78FEF7ADFB204610BD00BF2C130020A1
S113499010B584B000241D4B03F1080293E8030012
S11349A00290ADF80C1092E8030000908DF804100A
S11349B03E200121FDF7CEFA02A88DF808408DF8BB
S11349C00C40FFF787F8012069468DF80040FFF797
S11349D019F84FF0B04240F2FF3093690C4923F4C8
S11349E07F7323F0030393614861936A13F0080310
S11349F0FBD113620120FFF72BF84FF48052054BD3
S1134A00C3F880211A6004B010BD00BFD458000060
S1134A100020005800E100E04FF0B042936A1B0709
S1134A20FCD4106A704700BF10B50446FEF74AFB79
S1134A304FF0B042936A1907FCD4136A116C52699F
S1134A40520602D4CA1A032A1CD9E21A022A98BFAF
S1134A50DC1CB4F1FF3F38BF013C4FF0B0431C6491
S1134A609A6942F040029A61FEF730FB074B1A78CC
S1134A703AB14FF0B0410020CA6B42F00202CA635F
S1134A80187010BD8B42EFD1DFE700BF1910002072
S1134A9082074FF0B04200F00103916948BF43F030
S1134AA040030B4393617047820700F0010307D46E
S1134AB01A464FF0B0418B6923EA02038B617047B9
S1134AC04FF0B0414FF0010C43F04002CB6B034870
S1134AD023F0030380F800C0CB63EAE71910002039
S1134AE0830702D54022014B5A61704700100058D9
S1134AF04FF0B04301285B6906D0022802D1C3F30A
S1134B00801070470020704703F00100704700BF19
S1134B1010B5FEF7DFFA4FF0B04304465B695A065E
S1134B20074A03F0010003F0510348BF40F00200BC
S1134B305361FFF74BFE2046BDE81040FEF7D0BAA4
S1134B40002000583E20FDF735BA00BF10B582B0F2
S1134B500023012201A88DF805308DF804208DF87A
S1134B600630FBF719FE0446236820461B69984764
S1134B70FAE700BF0B460146184600F0CBB900F037
S1134B8029B80368DB0706D4437803B1FFDE0123A9
S1134B904370184670470020704701230360704734
S1134BA0012838BF012010B50446204600F0F8F96A
S1134BB030B900F011F808B900F0A4F98047F4E71F
S1134BC010BD08B500F09EF908B500F09BF908B5D2
S1134BD000F098F900F0ECB9014BD3E8AF0F70473F
S1134BE03813002053B94AB9002908BF00281CBF54
S1134BF04FF0FF314FF0FF3000F082B9ADF1080CF7
S1134C006DE904CE00F006F8DDF804E0DDE90223E6
S1134C1004B070472DE9F04F099D04460F46002B60
S1134C2048D18A42944661D9B2FA82F343B1C3F1BE
S1134C3020019F4002FA03FC9C4020FA01F10F433B
S1134C404FEA1C411FFA8CFE220CB7FBF1F601FB64
S1134C50167706FB0EF042EA0742904208D91CEB95
S1134C60020206F1FF3702D2904200F237813E463B
S1134C70121AA4B2B2FBF1F001FB102200FB0EFEEB
S1134C8044EA0244A64508D91CEB040400F1FF32AF
S1134C9002D2A64500F21C81104640EA0640A4EB6D
S1134CA00E0400261DB1DC400023C5E90043314653
S1134CB0BDE8F08F8B4209D9002D00F0FD8000265D
S1134CC0C5E9000130463146BDE8F08FB3FA83F6FA
S1134CD0002E4BD18B42C0F0F280824240F2EF8032
S1134CE03046002DE3D0C5E90047E0E702B9FFDE16
S1134CF0B2FA82F3002B40F09D80891A4FEA124EDB
S1134D0097B20126200CB1FBFEF20EFB121140EA11
S1134D10014107FB02F088420FD91CEB010102F1AB
S1134D20FF382CBF4FF001094FF00009884203D926
S1134D30B9F1000F00F0CF804246091AA4B2B1FBCA
S1134D40FEF00EFB101100FB07F744EA0144A742F2
S1134D5008D91CEB040400F1FF3102D2A74200F28F
S1134D60B4800846E41B40EA02409BE7C6F12007F2
S1134D70B34001FA06F422FA07FCF940B2404CEAC7
S1134D80030C20FA07F34FEA1C491C431FFA8CFE5C
S1134D9000FA06F3200CB1FBF9F809FB181140EAFC
S1134DA0014108FB0EF088420FD91CEB010108F108
S1134DB0FF3A2CBF4FF0010B4FF0000B884203D990
S1134DC0BBF1000F00F08D80D046091AA4B2B1FBEC
S1134DD0F9F009FB101100FB0EFE44EA01418E4577
S1134DE007D91CEB010100F1FF3401D28E457FD8B5
S1134DF0204640EA0840A1EB0E01A0FB0298414581
S1134E004C46C64602D306D14B4504D20138B9EB11
S1134E10020468EB0C0E002D70D01A1B61EB0E011E
S1134E2022FA06F301FA07F7F14000261F43C5E909
S1134E3000713CE702FA03FCC3F1200001FA03F21B
S1134E4021FA00F64FEA1C4E24FA00F11FFA8CF7FF
S1134E509C401143B6FBFEF00A0C0EFB106642EABE
S1134E60064200FB07F696420ED91CEB020200F143
S1134E70FF382CBF4FF001094FF00009964202D9C8
S1134E80B9F1000F31D04046921B89B2B2FBFEF655
S1134E900EFB162241EA024106FB07F28A4207D9B9
S1134EA01CEB010106F1FF3801D28A4223D84646A1
S1134EB0891A46EA004625E72E462846F7E6841A6C
S1134EC061EB030301201F460BE76444023849E702
S1134ED064440238E1E6023A61442EE7023E624449
S1134EE0C6E6A8F1020861446FE702386244CBE7E2
S1134EF0023861447DE7023E6144D9E72E46D6E696
S1134F00704700BF062008B500F094F9012000F0B6
S1134F10CBF9000010B5054C13462CB10A460146E6
S1134F20022000E000BF10BD2046FCE700000000A6
S1134F3008B5074B044613B1002100E000BF054B40
S1134F401868836A03B19847204600F0ADF900BFA2
S1134F5000000000E458000070B50D4D00260D4C13
S1134F60641BA410A64209D10B4D00260B4C00F083
S1134F709DF9641BA410A64205D170BD55F8043BED
S1134F8001369847EEE755F8043B01369847F2E7B7
S1134F90B0100020B0100020B0100020B810002085
S1134FA0024B0146186800F099B800BF1C1000209D
S1134FB0024B0146186800F025B800BF1C10002001
S1134FC0884210B501EB020402D98442234607D873
S1134FD0431EA14208D011F8012B03F8012FF8E772
S1134FE0024401468A4200D110BD13F8014D02F873
S1134FF0014DF7E702440346934200D1704703F89A
S1135000011BF9E737B5002943D051F8043C0C1FC4
S11350100190002BB8BFE41800F028F91E4A01984B
S1135020136833B96360146003B0BDE8304000F026
S113503023B9A34208D9256861198B4201BF1968B5
S11350405B6849192160EDE71A465B680BB1A3421E
S1135050FAD911685518A5420BD124682144541873
S11350601160A342E0D11C685B6821445360116065
S1135070DAE702D90C230360D6E7256861198B426D
S113508002BF19685B684919636008BF21605460F6
S1135090CAE703B030BD00BF3C13002070B50E4E0C
S11350A00C460546316811B900F08CF83060214691
S11350B0284600F087F8431C0AD0C41C24F00304DB
S11350C0A04207D0211A284600F07CF8013001D113
S11350D04FF0FF34204670BD401300202DE9F0410D
S11350E0CD1C074625F0030508350C2D38BF0C25CB
S11350F0002D01DBA94205D90C2300263B60304674
S1135100BDE8F0812E4E00F0B1F833681C4634BB84
S113511029463846FFF7C2FF431C04464DD1346884
S11351202646002E40D123683146384604EB030856
S113513000F048F880453AD12168033538466D1AA5
S113514025F0030508350C2D38BF0C252946FFF73B
S1135150A5FF01302BD023682B4423600EE0226886
S1135160521B1ED40B2A16D96119A342256018BFFD
S11351705960636808BF316062514B6004F10B06EB
S1135180384600F079F8231D26F00706F21AB6D047
S11351909B1BA350B3E76268A3420CBF32605A6002
S11351A0ECE723466468B2E734467668B9E70C2333
S11351B038463B6000F060F8A1E72560DEE700BFF9
S11351C03C13002038B50023054D044608462B60E7
S11351D0FCF73EFC431C02D12B6803B1236038BDAD
S11351E0441300201F2938B504460D4604D916235C
S11351F003604FF0FF3038BD426C12B152F82130D9
S11352004BB9204600F030F82A4601462046BDE856
S1135210384000F017B8012B0AD0591C03D11623CB
S113522003600120E7E70024284642F82540984718
S11352300020E0E7024B01461868FFF7D3BF00BF28
S11352401C10002038B50023064D044608461146BC
S11352502B6000F021F8431C02D12B6803B12360BA
S113526038BD00BF4413002000F00EB8014800F020
S113527009B800BF48130020014800F004B800BF7B
S11352804813002070477047024B58224FF0FF30FC
S11352901A60704744130020024B58224FF0FF302D
S11352A01A60704744130020FEE700BFF8B500BF42
S11352B0F8BC08BC9E467047F8B500BFF8BC08BCF3
S11352C09E4670470000000001B40248844601BCB9
S11352D0604700BF8110002063616E6E6F742063AD
S11352E07265617465207374643A3A6465717565B6
S11352F0206C6172676572207468616E206D6178DC
S11353005F73697A6528290000000000000000002E
S1135310050200004D0A00002902000035020000C9
S113532011040000AD0200000000020000000000B3
S113533000000000BA0400000000000000000200A9
S11353400000000000000000BA040000000000009B
S1135350050000000000000040420F0005010000AD
S11353600000000000000000000000000101000037
S113537000000000A08601000000000005000000FD
S11353800000000000C20100000500000010000041
S113539000000000000000000103040101010903F2
S11353A00B0000000B0000000200000000002020A1
S11353B000000000030000008C8C3C000000000092
S11353C0000000000000000000E09304FF0E7F07CF
S11353D003000000000000000000000001000000C5
S11353E0050000000000000000C2010000020000EF
S11353F00010000000000000000000000000000099
S11354001E0000030400000004000000020000006D
S11354100200000003000000000000000000000083
S1135420D902000009030000ED03000000000000A1
S113543000000000B102000001030000C9030000E5
S1135440433A2F6769742F496E6E694C69622F73F2
S11354506F757263652F53797374656D2F47656338
S11354606B6F53797374656D2F6765636B6F5F73CF
S1135470646B5F342E322E312F656D6C69622F653B
S11354806D5F636D752E6300020000000100000073
S113549001000000030000000300000002000000FF
S11354A006000000010000000500000004000000E8
S11354B0A0BB0D00C07A1000001F408240420F00C4
S11354C0C07A100020D613003A1F41A20000000049
S11354D020D61300905817003A1F42A20000000083
S11354E09058170040771B003A9F43B60000000015
S11354F040771B0070CE2000001F408180841E0076
S113550070CE200040AC27003A1F41A100000000EB
S113551040AC2700108A2E003A1F42A10000000070
S1135520108A2E0080EE36003A9F43B5000000003A
S113553080EE3600E09C4100001F408000093D00E1
S1135540E09C410080584F003A1F41A00000000039
S113555080584F0020145D003A1F42A00000000054
S113556020145D00C0047700009F43B4C0CF6A00DC
S1135570C0047700408995003A9F44B400000000BD
S113558040899500C00DB4003A9F45B40000000066
S1135590C00DB40000BADB00009F66B4405DC600D5
S11355A000BADB0080730601009F67B40024F40096
S11355B08073060120992C01009F68A8C0EA21018C
S11355C020992C01C0286B013A9F89B80000000083
S11355D0C0286B0160EDB501009F8AB880BA8C01C8
S11355E060EDB50180011302009FABB80048E801EB
S11355F08001130280138D02009FCCA880D5430242
S113560080138D02805A1303009FEDAC006CDC0202
S1135610805A130320289B03009FEEBC007E560390
S113562020289B03C0C95304009FEFBC0090D00303
S1135630C0C9530400B4C404009FF0CC00B4C40433
S1135640433A2F6769742F496E6E694C69622F73F0
S11356506F757263652F53797374656D2F47656336
S11356606B6F53797374656D2F6765636B6F5F73CD
S1135670646B5F342E322E312F656D6C69622F6539
S11356806D5F656D752E6300433A2F6769742F490A
S11356906E6E694C69622F736F757263652F5379EF
S11356A07374656D2F4765636B6F53797374656DA0
S11356B02F6765636B6F5F73646B5F342E322E31BB
S11356C02F656D6C69622F656D5F6932632E6300AF
S11356D0433A2F6769742F496E6E694C69622F7360
S11356E06F757263652F53797374656D2F476563A6
S11356F06B6F53797374656D2F6765636B6F5F733D
S1135700646B5F342E322E312F656D6C69622F65A8
S11357106D5F6C646D612E6300000000433A2F6777
S113572069742F496E6E694C69622F736F75726369
S1135730652F53797374656D2F4765636B6F537968
S11357407374656D2F6765636B6F5F73646B5F3430
S11357502E322E312F656D6C69622F656D5F627517
S1135760732E6800433A2F6769742F496E6E694C33
S113577069622F736F757263652F53797374656DE6
S11357802F4765636B6F53797374656D2F6765631A
S11357906B6F5F73646B5F342E322E312F656D6CCB
S11357A069622F656D5F727463632E63000000008D
S11357B0433A2F6769742F496E6E694C69622F737F
S11357C06F757263652F53797374656D2F476563C5
S11357D06B6F53797374656D2F6765636B6F5F735C
S11357E0646B5F342E322E312F706F7765725F6D6C
S11357F0616E616765722F736C5F706F7765725F3E
S11358006D616E616765722E630000000100000027
S1135810040000001000000040000000433A2F671D
S113582069742F496E6E694C69622F736F75726368
S1135830652F53797374656D2F4765636B6F537967
S11358407374656D2F6765636B6F5F73646B5F342F
S11358502E322E312F706F7765725F6D616E6167C6
S113586065722F736C5F706F7765725F6D616E61C7
S11358706765725F68616C5F73322E6300000000BD
S1135880433A2F6769742F496E6E694C69622F73AE
S11358906F757263652F53797374656D2F476563F4
S11358A06B6F53797374656D2F6765636B6F5F738B
S11358B0646B5F342E322E312F736C65657074699E
S11358C06D65722F736C5F736C65657074696D655B
S11358D0722E6300010000000500000002000003B6
S10B58E000000000201000206C
S10B58E898A8FF7F01000000F5
S10F58F0FC580000001000202F000000F5
S11358FC00000000C0EA2101C0EA210100F04902C5
S113590C0080000050130020010100002010002032
S113591C0000000000000000000000000000000077
S113592C0000000000000000000000000000000067
S113593C0000000000000000000000000000000057
S113594C0000000000000000000000000000000047
S113595C0000000000000000000000000000000037
S113596C0000000000000000000000000000000027
S113597C30BF0A4BD3F8F030DB070DD582B00023CF
S113598C0193019B052B05DC019B01330193019BC6
S113599C052BF9DD02B07047704700BF00ED00E045
S10F59AC6501000011180000410100001A
S903185D87
